{
  "_format": "hh-sol-artifact-1",
  "contractName": "auction",
  "sourceName": "contracts/auction.sol",
  "abi": [
    {
      "inputs": [
        {
          "internalType": "uint256",
          "name": "_basePrice",
          "type": "uint256"
        },
        {
          "internalType": "string",
          "name": "_description",
          "type": "string"
        },
        {
          "internalType": "uint256",
          "name": "_charge",
          "type": "uint256"
        }
      ],
      "stateMutability": "nonpayable",
      "type": "constructor"
    },
    {
      "anonymous": false,
      "inputs": [
        {
          "indexed": true,
          "internalType": "address",
          "name": "buyer",
          "type": "address"
        },
        {
          "indexed": true,
          "internalType": "uint256",
          "name": "FinalPrice",
          "type": "uint256"
        }
      ],
      "name": "auctionEnded",
      "type": "event"
    },
    {
      "anonymous": false,
      "inputs": [
        {
          "indexed": true,
          "internalType": "address",
          "name": "bidders",
          "type": "address"
        },
        {
          "indexed": false,
          "internalType": "uint256",
          "name": "prevBid",
          "type": "uint256"
        },
        {
          "indexed": false,
          "internalType": "uint256",
          "name": "incrementAmount",
          "type": "uint256"
        },
        {
          "indexed": false,
          "internalType": "uint256",
          "name": "recBid",
          "type": "uint256"
        }
      ],
      "name": "bidPlacers",
      "type": "event"
    },
    {
      "anonymous": false,
      "inputs": [
        {
          "indexed": true,
          "internalType": "uint256",
          "name": "basePrice",
          "type": "uint256"
        },
        {
          "indexed": false,
          "internalType": "uint256",
          "name": "charge",
          "type": "uint256"
        },
        {
          "indexed": true,
          "internalType": "address",
          "name": "owner",
          "type": "address"
        }
      ],
      "name": "newAuction",
      "type": "event"
    },
    {
      "inputs": [],
      "name": "claimProduct",
      "outputs": [],
      "stateMutability": "payable",
      "type": "function"
    },
    {
      "inputs": [],
      "name": "endAuction",
      "outputs": [],
      "stateMutability": "nonpayable",
      "type": "function"
    },
    {
      "inputs": [],
      "name": "getAuctionEndStatus",
      "outputs": [
        {
          "internalType": "bool",
          "name": "",
          "type": "bool"
        }
      ],
      "stateMutability": "view",
      "type": "function"
    },
    {
      "inputs": [],
      "name": "owner",
      "outputs": [
        {
          "internalType": "address payable",
          "name": "",
          "type": "address"
        }
      ],
      "stateMutability": "view",
      "type": "function"
    },
    {
      "inputs": [],
      "name": "placeBid",
      "outputs": [],
      "stateMutability": "payable",
      "type": "function"
    },
    {
      "inputs": [],
      "name": "reAuction",
      "outputs": [
        {
          "internalType": "bool",
          "name": "",
          "type": "bool"
        }
      ],
      "stateMutability": "view",
      "type": "function"
    },
    {
      "inputs": [],
      "name": "readAuction",
      "outputs": [
        {
          "internalType": "uint256",
          "name": "",
          "type": "uint256"
        },
        {
          "internalType": "string",
          "name": "",
          "type": "string"
        },
        {
          "internalType": "address",
          "name": "",
          "type": "address"
        },
        {
          "internalType": "uint256",
          "name": "",
          "type": "uint256"
        },
        {
          "internalType": "bool",
          "name": "",
          "type": "bool"
        },
        {
          "internalType": "address",
          "name": "",
          "type": "address"
        },
        {
          "internalType": "uint256",
          "name": "",
          "type": "uint256"
        }
      ],
      "stateMutability": "view",
      "type": "function"
    },
    {
      "inputs": [
        {
          "internalType": "uint256",
          "name": "_charge",
          "type": "uint256"
        },
        {
          "internalType": "uint256",
          "name": "_basePrice",
          "type": "uint256"
        }
      ],
      "name": "startAuction",
      "outputs": [],
      "stateMutability": "nonpayable",
      "type": "function"
    }
  ],
  "bytecode": "0x60806040523480156200001157600080fd5b5060405162001b2238038062001b228339818101604052810190620000379190620002d9565b336000806101000a81548173ffffffffffffffffffffffffffffffffffffffff021916908373ffffffffffffffffffffffffffffffffffffffff16021790555082600360000181905550816003600101908162000095919062000595565b508060036002018190555060006003800160006101000a81548160ff0219169083151502179055506000600360050160006101000a81548173ffffffffffffffffffffffffffffffffffffffff021916908373ffffffffffffffffffffffffffffffffffffffff1602179055505050506200067c565b6000604051905090565b600080fd5b600080fd5b6000819050919050565b62000134816200011f565b81146200014057600080fd5b50565b600081519050620001548162000129565b92915050565b600080fd5b600080fd5b6000601f19601f8301169050919050565b7f4e487b7100000000000000000000000000000000000000000000000000000000600052604160045260246000fd5b620001af8262000164565b810181811067ffffffffffffffff82111715620001d157620001d062000175565b5b80604052505050565b6000620001e66200010b565b9050620001f48282620001a4565b919050565b600067ffffffffffffffff82111562000217576200021662000175565b5b620002228262000164565b9050602081019050919050565b60005b838110156200024f57808201518184015260208101905062000232565b60008484015250505050565b6000620002726200026c84620001f9565b620001da565b9050828152602081018484840111156200029157620002906200015f565b5b6200029e8482856200022f565b509392505050565b600082601f830112620002be57620002bd6200015a565b5b8151620002d08482602086016200025b565b91505092915050565b600080600060608486031215620002f557620002f462000115565b5b6000620003058682870162000143565b935050602084015167ffffffffffffffff8111156200032957620003286200011a565b5b6200033786828701620002a6565b92505060406200034a8682870162000143565b9150509250925092565b600081519050919050565b7f4e487b7100000000000000000000000000000000000000000000000000000000600052602260045260246000fd5b60006002820490506001821680620003a757607f821691505b602082108103620003bd57620003bc6200035f565b5b50919050565b60008190508160005260206000209050919050565b60006020601f8301049050919050565b600082821b905092915050565b600060088302620004277fffffffffffffffffffffffffffffffffffffffffffffffffffffffffffffffff82620003e8565b620004338683620003e8565b95508019841693508086168417925050509392505050565b6000819050919050565b600062000476620004706200046a846200011f565b6200044b565b6200011f565b9050919050565b6000819050919050565b620004928362000455565b620004aa620004a1826200047d565b848454620003f5565b825550505050565b600090565b620004c1620004b2565b620004ce81848462000487565b505050565b5b81811015620004f657620004ea600082620004b7565b600181019050620004d4565b5050565b601f82111562000545576200050f81620003c3565b6200051a84620003d8565b810160208510156200052a578190505b620005426200053985620003d8565b830182620004d3565b50505b505050565b600082821c905092915050565b60006200056a600019846008026200054a565b1980831691505092915050565b600062000585838362000557565b9150826002028217905092915050565b620005a08262000354565b67ffffffffffffffff811115620005bc57620005bb62000175565b5b620005c882546200038e565b620005d5828285620004fa565b600060209050601f8311600181146200060d5760008415620005f8578287015190505b62000604858262000577565b86555062000674565b601f1984166200061d86620003c3565b60005b82811015620006475784890151825560018201915060208501945060208101905062000620565b8683101562000667578489015162000663601f89168262000557565b8355505b6001600288020188555050505b505050505050565b611496806200068c6000396000f3fe60806040526004361061007b5760003560e01c8063d61f10e81161004e578063d61f10e814610109578063ecfc7ecc14610134578063f4a1dc6f1461013e578063fe67a54b1461016f5761007b565b80634fee13fc146100805780635c96da4a146100a95780638da5cb5b146100d4578063a4882da5146100ff575b600080fd5b34801561008c57600080fd5b506100a760048036038101906100a29190610d38565b610186565b005b3480156100b557600080fd5b506100be61035a565b6040516100cb9190610d93565b60405180910390f35b3480156100e057600080fd5b506100e9610373565b6040516100f69190610def565b60405180910390f35b610107610397565b005b34801561011557600080fd5b5061011e610641565b60405161012b9190610d93565b60405180910390f35b61013c610654565b005b34801561014a57600080fd5b50610153610aaf565b6040516101669796959493929190610eca565b60405180910390f35b34801561017b57600080fd5b50610184610bce565b005b3373ffffffffffffffffffffffffffffffffffffffff1660008054906101000a900473ffffffffffffffffffffffffffffffffffffffff1673ffffffffffffffffffffffffffffffffffffffff1614610214576040517f08c379a000000000000000000000000000000000000000000000000000000000815260040161020b90610f8c565b60405180910390fd5b6003800160009054906101000a900460ff16610265576040517f08c379a000000000000000000000000000000000000000000000000000000000815260040161025c90610ff8565b60405180910390fd5b60011515600060149054906101000a900460ff161515146102bb576040517f08c379a00000000000000000000000000000000000000000000000000000000081526004016102b290610ff8565b60405180910390fd5b60006003800160006101000a81548160ff021916908315150217905550816003600201819055506000600360050160006101000a81548173ffffffffffffffffffffffffffffffffffffffff021916908373ffffffffffffffffffffffffffffffffffffffff16021790555060006003600401819055508060036000018190555060008060146101000a81548160ff0219169083151502179055505050565b60006003800160009054906101000a900460ff16905090565b60008054906101000a900473ffffffffffffffffffffffffffffffffffffffff1681565b6003800160009054906101000a900460ff166103e8576040517f08c379a00000000000000000000000000000000000000000000000000000000081526004016103df90611064565b60405180910390fd5b3373ffffffffffffffffffffffffffffffffffffffff16600360050160009054906101000a900473ffffffffffffffffffffffffffffffffffffffff1673ffffffffffffffffffffffffffffffffffffffff161461047b576040517f08c379a0000000000000000000000000000000000000000000000000000000008152600401610472906110d0565b60405180910390fd5b6000600360040154116104c3576040517f08c379a00000000000000000000000000000000000000000000000000000000081526004016104ba9061113c565b60405180910390fd5b346003600401541461050a576040517f08c379a0000000000000000000000000000000000000000000000000000000008152600401610501906111ce565b60405180910390fd5b60008054906101000a900473ffffffffffffffffffffffffffffffffffffffff1673ffffffffffffffffffffffffffffffffffffffff166108fc479081150290604051600060405180830381858888f19350505050158015610570573d6000803e3d6000fd5b50600360050160009054906101000a900473ffffffffffffffffffffffffffffffffffffffff166000806101000a81548173ffffffffffffffffffffffffffffffffffffffff021916908373ffffffffffffffffffffffffffffffffffffffff16021790555060036004015460008054906101000a900473ffffffffffffffffffffffffffffffffffffffff1673ffffffffffffffffffffffffffffffffffffffff167f6e0e2174dbf7b77c08b6f9a2799b9feda84a6d54a5644864582040100a47d4c560405160405180910390a3565b600060149054906101000a900460ff1681565b600015156003800160009054906101000a900460ff161515146106ac576040517f08c379a00000000000000000000000000000000000000000000000000000000081526004016106a39061123a565b60405180910390fd5b6000341180156106c157506003600001543410155b610700576040517f08c379a00000000000000000000000000000000000000000000000000000000081526004016106f7906112a6565b60405180910390fd5b600360040154600260003373ffffffffffffffffffffffffffffffffffffffff1673ffffffffffffffffffffffffffffffffffffffff168152602001908152602001600020543461075191906112f5565b11610791576040517f08c379a000000000000000000000000000000000000000000000000000000000815260040161078890611375565b60405180910390fd5b34600160003373ffffffffffffffffffffffffffffffffffffffff1673ffffffffffffffffffffffffffffffffffffffff16815260200190815260200160002081905550600160003373ffffffffffffffffffffffffffffffffffffffff1673ffffffffffffffffffffffffffffffffffffffff16815260200190815260200160002054600260003373ffffffffffffffffffffffffffffffffffffffff1673ffffffffffffffffffffffffffffffffffffffff168152602001908152602001600020600082825461086391906112f5565b925050819055503373ffffffffffffffffffffffffffffffffffffffff167f0e5ab17807c69aa52563a5badce99097ac8c03419a8e56e6a0b1468bb9541dc5600160003373ffffffffffffffffffffffffffffffffffffffff1673ffffffffffffffffffffffffffffffffffffffff16815260200190815260200160002054600260003373ffffffffffffffffffffffffffffffffffffffff1673ffffffffffffffffffffffffffffffffffffffff1681526020019081526020016000205461092c9190611395565b34600260003373ffffffffffffffffffffffffffffffffffffffff1673ffffffffffffffffffffffffffffffffffffffff1681526020019081526020016000205460405161097c939291906113c9565b60405180910390a26000600360020154600160003373ffffffffffffffffffffffffffffffffffffffff1673ffffffffffffffffffffffffffffffffffffffff168152602001908152602001600020546109d69190611395565b905033600360050160006101000a81548173ffffffffffffffffffffffffffffffffffffffff021916908373ffffffffffffffffffffffffffffffffffffffff160217905550600260003373ffffffffffffffffffffffffffffffffffffffff1673ffffffffffffffffffffffffffffffffffffffff168152602001908152602001600020546003600401819055503373ffffffffffffffffffffffffffffffffffffffff166108fc829081150290604051600060405180830381858888f19350505050158015610aab573d6000803e3d6000fd5b5050565b6000606060008060008060006003600001546003600101600360050160009054906101000a900473ffffffffffffffffffffffffffffffffffffffff166003600401546003800160009054906101000a900460ff1660008054906101000a900473ffffffffffffffffffffffffffffffffffffffff16600360020154858054610b379061142f565b80601f0160208091040260200160405190810160405280929190818152602001828054610b639061142f565b8015610bb05780601f10610b8557610100808354040283529160200191610bb0565b820191906000526020600020905b815481529060010190602001808311610b9357829003601f168201915b50505050509550965096509650965096509650965090919293949596565b3373ffffffffffffffffffffffffffffffffffffffff1660008054906101000a900473ffffffffffffffffffffffffffffffffffffffff1673ffffffffffffffffffffffffffffffffffffffff1614610c5c576040517f08c379a0000000000000000000000000000000000000000000000000000000008152600401610c5390610f8c565b60405180910390fd5b60016003800160006101000a81548160ff0219169083151502179055506001600060146101000a81548160ff02191690831515021790555060008054906101000a900473ffffffffffffffffffffffffffffffffffffffff1673ffffffffffffffffffffffffffffffffffffffff166108fc479081150290604051600060405180830381858888f19350505050158015610cfa573d6000803e3d6000fd5b50565b600080fd5b6000819050919050565b610d1581610d02565b8114610d2057600080fd5b50565b600081359050610d3281610d0c565b92915050565b60008060408385031215610d4f57610d4e610cfd565b5b6000610d5d85828601610d23565b9250506020610d6e85828601610d23565b9150509250929050565b60008115159050919050565b610d8d81610d78565b82525050565b6000602082019050610da86000830184610d84565b92915050565b600073ffffffffffffffffffffffffffffffffffffffff82169050919050565b6000610dd982610dae565b9050919050565b610de981610dce565b82525050565b6000602082019050610e046000830184610de0565b92915050565b610e1381610d02565b82525050565b600081519050919050565b600082825260208201905092915050565b60005b83811015610e53578082015181840152602081019050610e38565b60008484015250505050565b6000601f19601f8301169050919050565b6000610e7b82610e19565b610e858185610e24565b9350610e95818560208601610e35565b610e9e81610e5f565b840191505092915050565b6000610eb482610dae565b9050919050565b610ec481610ea9565b82525050565b600060e082019050610edf600083018a610e0a565b8181036020830152610ef18189610e70565b9050610f006040830188610ebb565b610f0d6060830187610e0a565b610f1a6080830186610d84565b610f2760a0830185610ebb565b610f3460c0830184610e0a565b98975050505050505050565b7f6f6e6c79206f776e657220697320616c6c6f7765640000000000000000000000600082015250565b6000610f76601583610e24565b9150610f8182610f40565b602082019050919050565b60006020820190508181036000830152610fa581610f69565b9050919050565b7f61756374696f6e2063616e277420626520737461727465640000000000000000600082015250565b6000610fe2601883610e24565b9150610fed82610fac565b602082019050919050565b6000602082019050818103600083015261101181610fd5565b9050919050565b7f6f776e6572206861736e6f7420656e6465642061756374696f6e000000000000600082015250565b600061104e601a83610e24565b915061105982611018565b602082019050919050565b6000602082019050818103600083015261107d81611041565b9050919050565b7f796f7520617265206e6f74206865206869676865737420626964646572000000600082015250565b60006110ba601d83610e24565b91506110c582611084565b602082019050919050565b600060208201905081810360008301526110e9816110ad565b9050919050565b7f626964206973206e6f7420646f6e65206f6e207468652070726f647563740000600082015250565b6000611126601e83610e24565b9150611131826110f0565b602082019050919050565b6000602082019050818103600083015261115581611119565b9050919050565b7f616d6f756e74206d75737420626520657175616c20746f2062696420616d6f7560008201527f6e74000000000000000000000000000000000000000000000000000000000000602082015250565b60006111b8602283610e24565b91506111c38261115c565b604082019050919050565b600060208201905081810360008301526111e7816111ab565b9050919050565b7f7468652061756374696f6e20697320636c6f7365640000000000000000000000600082015250565b6000611224601583610e24565b915061122f826111ee565b602082019050919050565b6000602082019050818103600083015261125381611217565b9050919050565b7f616d6f756e742063616e74206265207a65726f00000000000000000000000000600082015250565b6000611290601383610e24565b915061129b8261125a565b602082019050919050565b600060208201905081810360008301526112bf81611283565b9050919050565b7f4e487b7100000000000000000000000000000000000000000000000000000000600052601160045260246000fd5b600061130082610d02565b915061130b83610d02565b9250828201905080821115611323576113226112c6565b5b92915050565b7f6c657373207468616e207468652062696420616d6f756e740000000000000000600082015250565b600061135f601883610e24565b915061136a82611329565b602082019050919050565b6000602082019050818103600083015261138e81611352565b9050919050565b60006113a082610d02565b91506113ab83610d02565b92508282039050818111156113c3576113c26112c6565b5b92915050565b60006060820190506113de6000830186610e0a565b6113eb6020830185610e0a565b6113f86040830184610e0a565b949350505050565b7f4e487b7100000000000000000000000000000000000000000000000000000000600052602260045260246000fd5b6000600282049050600182168061144757607f821691505b60208210810361145a57611459611400565b5b5091905056fea26469706673582212202dde16f0e7aa03236a7ce03c6af17f4d954bda9dceadc22cd40a122894e488d964736f6c63430008110033",
  "linkReferences": {},
  "deployedLinkReferences": {}
}