{
  "_format": "hh-sol-artifact-1",
  "contractName": "auction",
  "sourceName": "contracts/auction.sol",
  "abi": [
    {
      "inputs": [
        {
          "internalType": "uint256",
          "name": "_basePrice",
          "type": "uint256"
        },
        {
          "internalType": "string",
          "name": "_description",
          "type": "string"
        },
        {
          "internalType": "uint256",
          "name": "_charge",
          "type": "uint256"
        }
      ],
      "stateMutability": "nonpayable",
      "type": "constructor"
    },
    {
      "anonymous": false,
      "inputs": [
        {
          "indexed": true,
          "internalType": "address",
          "name": "buyer",
          "type": "address"
        },
        {
          "indexed": true,
          "internalType": "uint256",
          "name": "FinalPrice",
          "type": "uint256"
        }
      ],
      "name": "auctionEnded",
      "type": "event"
    },
    {
      "anonymous": false,
      "inputs": [
        {
          "indexed": true,
          "internalType": "address",
          "name": "bidders",
          "type": "address"
        },
        {
          "indexed": false,
          "internalType": "uint256",
          "name": "prevBid",
          "type": "uint256"
        },
        {
          "indexed": false,
          "internalType": "uint256",
          "name": "incrementAmount",
          "type": "uint256"
        },
        {
          "indexed": false,
          "internalType": "uint256",
          "name": "recBid",
          "type": "uint256"
        }
      ],
      "name": "bidPlacers",
      "type": "event"
    },
    {
      "anonymous": false,
      "inputs": [
        {
          "indexed": true,
          "internalType": "uint256",
          "name": "basePrice",
          "type": "uint256"
        },
        {
          "indexed": false,
          "internalType": "uint256",
          "name": "charge",
          "type": "uint256"
        },
        {
          "indexed": true,
          "internalType": "address",
          "name": "owner",
          "type": "address"
        }
      ],
      "name": "newAuction",
      "type": "event"
    },
    {
      "inputs": [
        {
          "internalType": "uint256",
          "name": "",
          "type": "uint256"
        }
      ],
      "name": "bidders",
      "outputs": [
        {
          "internalType": "address",
          "name": "",
          "type": "address"
        }
      ],
      "stateMutability": "view",
      "type": "function"
    },
    {
      "inputs": [],
      "name": "claimProduct",
      "outputs": [],
      "stateMutability": "payable",
      "type": "function"
    },
    {
      "inputs": [],
      "name": "endAuction",
      "outputs": [],
      "stateMutability": "nonpayable",
      "type": "function"
    },
    {
      "inputs": [],
      "name": "getOwner",
      "outputs": [
        {
          "internalType": "address",
          "name": "",
          "type": "address"
        }
      ],
      "stateMutability": "view",
      "type": "function"
    },
    {
      "inputs": [],
      "name": "owner",
      "outputs": [
        {
          "internalType": "address payable",
          "name": "",
          "type": "address"
        }
      ],
      "stateMutability": "view",
      "type": "function"
    },
    {
      "inputs": [],
      "name": "placeBid",
      "outputs": [],
      "stateMutability": "payable",
      "type": "function"
    },
    {
      "inputs": [],
      "name": "readAuction",
      "outputs": [
        {
          "internalType": "uint256",
          "name": "",
          "type": "uint256"
        },
        {
          "internalType": "string",
          "name": "",
          "type": "string"
        },
        {
          "internalType": "address",
          "name": "",
          "type": "address"
        },
        {
          "internalType": "uint256",
          "name": "",
          "type": "uint256"
        },
        {
          "internalType": "bool",
          "name": "",
          "type": "bool"
        },
        {
          "internalType": "address",
          "name": "",
          "type": "address"
        },
        {
          "internalType": "uint256",
          "name": "",
          "type": "uint256"
        }
      ],
      "stateMutability": "view",
      "type": "function"
    },
    {
      "inputs": [
        {
          "internalType": "uint256",
          "name": "_charge",
          "type": "uint256"
        },
        {
          "internalType": "uint256",
          "name": "_basePrice",
          "type": "uint256"
        }
      ],
      "name": "startAuction",
      "outputs": [],
      "stateMutability": "nonpayable",
      "type": "function"
    }
  ],
  "bytecode": "0x60806040523480156200001157600080fd5b5060405162001968380380620019688339818101604052810190620000379190620002da565b336000806101000a81548173ffffffffffffffffffffffffffffffffffffffff021916908373ffffffffffffffffffffffffffffffffffffffff16021790555082600460000181905550816004600101908162000095919062000596565b50806004600201819055506000600460030160006101000a81548160ff0219169083151502179055506000600460050160006101000a81548173ffffffffffffffffffffffffffffffffffffffff021916908373ffffffffffffffffffffffffffffffffffffffff1602179055505050506200067d565b6000604051905090565b600080fd5b600080fd5b6000819050919050565b620001358162000120565b81146200014157600080fd5b50565b60008151905062000155816200012a565b92915050565b600080fd5b600080fd5b6000601f19601f8301169050919050565b7f4e487b7100000000000000000000000000000000000000000000000000000000600052604160045260246000fd5b620001b08262000165565b810181811067ffffffffffffffff82111715620001d257620001d162000176565b5b80604052505050565b6000620001e76200010c565b9050620001f58282620001a5565b919050565b600067ffffffffffffffff82111562000218576200021762000176565b5b620002238262000165565b9050602081019050919050565b60005b838110156200025057808201518184015260208101905062000233565b60008484015250505050565b6000620002736200026d84620001fa565b620001db565b90508281526020810184848401111562000292576200029162000160565b5b6200029f84828562000230565b509392505050565b600082601f830112620002bf57620002be6200015b565b5b8151620002d18482602086016200025c565b91505092915050565b600080600060608486031215620002f657620002f562000116565b5b6000620003068682870162000144565b935050602084015167ffffffffffffffff8111156200032a57620003296200011b565b5b6200033886828701620002a7565b92505060406200034b8682870162000144565b9150509250925092565b600081519050919050565b7f4e487b7100000000000000000000000000000000000000000000000000000000600052602260045260246000fd5b60006002820490506001821680620003a857607f821691505b602082108103620003be57620003bd62000360565b5b50919050565b60008190508160005260206000209050919050565b60006020601f8301049050919050565b600082821b905092915050565b600060088302620004287fffffffffffffffffffffffffffffffffffffffffffffffffffffffffffffffff82620003e9565b620004348683620003e9565b95508019841693508086168417925050509392505050565b6000819050919050565b600062000477620004716200046b8462000120565b6200044c565b62000120565b9050919050565b6000819050919050565b620004938362000456565b620004ab620004a2826200047e565b848454620003f6565b825550505050565b600090565b620004c2620004b3565b620004cf81848462000488565b505050565b5b81811015620004f757620004eb600082620004b8565b600181019050620004d5565b5050565b601f82111562000546576200051081620003c4565b6200051b84620003d9565b810160208510156200052b578190505b620005436200053a85620003d9565b830182620004d4565b50505b505050565b600082821c905092915050565b60006200056b600019846008026200054b565b1980831691505092915050565b600062000586838362000558565b9150826002028217905092915050565b620005a18262000355565b67ffffffffffffffff811115620005bd57620005bc62000176565b5b620005c982546200038f565b620005d6828285620004fb565b600060209050601f8311600181146200060e5760008415620005f9578287015190505b62000605858262000578565b86555062000675565b601f1984166200061e86620003c4565b60005b82811015620006485784890151825560018201915060208501945060208101905062000621565b8683101562000668578489015162000664601f89168262000558565b8355505b6001600288020188555050505b505050505050565b6112db806200068d6000396000f3fe60806040526004361061007b5760003560e01c8063cff29dfd1161004e578063cff29dfd14610109578063ecfc7ecc14610146578063f4a1dc6f14610150578063fe67a54b146101815761007b565b80634fee13fc14610080578063893d20e8146100a95780638da5cb5b146100d4578063a4882da5146100ff575b600080fd5b34801561008c57600080fd5b506100a760048036038101906100a29190610be2565b610198565b005b3480156100b557600080fd5b506100be610292565b6040516100cb9190610c63565b60405180910390f35b3480156100e057600080fd5b506100e96102bb565b6040516100f69190610c9f565b60405180910390f35b6101076102df565b005b34801561011557600080fd5b50610130600480360381019061012b9190610cba565b6104da565b60405161013d9190610c63565b60405180910390f35b61014e610519565b005b34801561015c57600080fd5b50610165610973565b6040516101789796959493929190610da1565b60405180910390f35b34801561018d57600080fd5b50610196610a92565b005b3373ffffffffffffffffffffffffffffffffffffffff1660008054906101000a900473ffffffffffffffffffffffffffffffffffffffff1673ffffffffffffffffffffffffffffffffffffffff1614610226576040517f08c379a000000000000000000000000000000000000000000000000000000000815260040161021d90610e63565b60405180910390fd5b600460030160009054906101000a900460ff16610278576040517f08c379a000000000000000000000000000000000000000000000000000000000815260040161026f90610ecf565b60405180910390fd5b60001515600460030160009054906101000a905050505050565b60008060009054906101000a900473ffffffffffffffffffffffffffffffffffffffff16905090565b60008054906101000a900473ffffffffffffffffffffffffffffffffffffffff1681565b600460030160009054906101000a900460ff16610331576040517f08c379a000000000000000000000000000000000000000000000000000000000815260040161032890610f3b565b60405180910390fd5b3373ffffffffffffffffffffffffffffffffffffffff16600460050160009054906101000a900473ffffffffffffffffffffffffffffffffffffffff1673ffffffffffffffffffffffffffffffffffffffff16146103c4576040517f08c379a00000000000000000000000000000000000000000000000000000000081526004016103bb90610fa7565b60405180910390fd5b600060048001541161040b576040517f08c379a000000000000000000000000000000000000000000000000000000000815260040161040290611013565b60405180910390fd5b600460050160009054906101000a900473ffffffffffffffffffffffffffffffffffffffff166000806101000a81548173ffffffffffffffffffffffffffffffffffffffff021916908373ffffffffffffffffffffffffffffffffffffffff160217905550600480015460008054906101000a900473ffffffffffffffffffffffffffffffffffffffff1673ffffffffffffffffffffffffffffffffffffffff167f6e0e2174dbf7b77c08b6f9a2799b9feda84a6d54a5644864582040100a47d4c560405160405180910390a3565b600381815481106104ea57600080fd5b906000526020600020016000915054906101000a900473ffffffffffffffffffffffffffffffffffffffff1681565b60001515600460030160009054906101000a900460ff16151514610572576040517f08c379a00000000000000000000000000000000000000000000000000000000081526004016105699061107f565b60405180910390fd5b60003411801561058757506004600001543410155b6105c6576040517f08c379a00000000000000000000000000000000000000000000000000000000081526004016105bd906110eb565b60405180910390fd5b6004800154600260003373ffffffffffffffffffffffffffffffffffffffff1673ffffffffffffffffffffffffffffffffffffffff1681526020019081526020016000205434610616919061113a565b11610656576040517f08c379a000000000000000000000000000000000000000000000000000000000815260040161064d906111ba565b60405180910390fd5b34600160003373ffffffffffffffffffffffffffffffffffffffff1673ffffffffffffffffffffffffffffffffffffffff16815260200190815260200160002081905550600160003373ffffffffffffffffffffffffffffffffffffffff1673ffffffffffffffffffffffffffffffffffffffff16815260200190815260200160002054600260003373ffffffffffffffffffffffffffffffffffffffff1673ffffffffffffffffffffffffffffffffffffffff1681526020019081526020016000206000828254610728919061113a565b925050819055503373ffffffffffffffffffffffffffffffffffffffff167f0e5ab17807c69aa52563a5badce99097ac8c03419a8e56e6a0b1468bb9541dc5600160003373ffffffffffffffffffffffffffffffffffffffff1673ffffffffffffffffffffffffffffffffffffffff16815260200190815260200160002054600260003373ffffffffffffffffffffffffffffffffffffffff1673ffffffffffffffffffffffffffffffffffffffff168152602001908152602001600020546107f191906111da565b34600260003373ffffffffffffffffffffffffffffffffffffffff1673ffffffffffffffffffffffffffffffffffffffff168152602001908152602001600020546040516108419392919061120e565b60405180910390a26000600460020154600160003373ffffffffffffffffffffffffffffffffffffffff1673ffffffffffffffffffffffffffffffffffffffff1681526020019081526020016000205461089b91906111da565b905033600460050160006101000a81548173ffffffffffffffffffffffffffffffffffffffff021916908373ffffffffffffffffffffffffffffffffffffffff160217905550600260003373ffffffffffffffffffffffffffffffffffffffff1673ffffffffffffffffffffffffffffffffffffffff1681526020019081526020016000205460048001819055503373ffffffffffffffffffffffffffffffffffffffff166108fc829081150290604051600060405180830381858888f1935050505015801561096f573d6000803e3d6000fd5b5050565b6000606060008060008060006004600001546004600101600460050160009054906101000a900473ffffffffffffffffffffffffffffffffffffffff166004800154600460030160009054906101000a900460ff1660008054906101000a900473ffffffffffffffffffffffffffffffffffffffff166004600201548580546109fb90611274565b80601f0160208091040260200160405190810160405280929190818152602001828054610a2790611274565b8015610a745780601f10610a4957610100808354040283529160200191610a74565b820191906000526020600020905b815481529060010190602001808311610a5757829003601f168201915b50505050509550965096509650965096509650965090919293949596565b3373ffffffffffffffffffffffffffffffffffffffff1660008054906101000a900473ffffffffffffffffffffffffffffffffffffffff1673ffffffffffffffffffffffffffffffffffffffff1614610b20576040517f08c379a0000000000000000000000000000000000000000000000000000000008152600401610b1790610e63565b60405180910390fd5b6001600460030160006101000a81548160ff02191690831515021790555060008054906101000a900473ffffffffffffffffffffffffffffffffffffffff1673ffffffffffffffffffffffffffffffffffffffff166108fc479081150290604051600060405180830381858888f19350505050158015610ba4573d6000803e3d6000fd5b50565b600080fd5b6000819050919050565b610bbf81610bac565b8114610bca57600080fd5b50565b600081359050610bdc81610bb6565b92915050565b60008060408385031215610bf957610bf8610ba7565b5b6000610c0785828601610bcd565b9250506020610c1885828601610bcd565b9150509250929050565b600073ffffffffffffffffffffffffffffffffffffffff82169050919050565b6000610c4d82610c22565b9050919050565b610c5d81610c42565b82525050565b6000602082019050610c786000830184610c54565b92915050565b6000610c8982610c22565b9050919050565b610c9981610c7e565b82525050565b6000602082019050610cb46000830184610c90565b92915050565b600060208284031215610cd057610ccf610ba7565b5b6000610cde84828501610bcd565b91505092915050565b610cf081610bac565b82525050565b600081519050919050565b600082825260208201905092915050565b60005b83811015610d30578082015181840152602081019050610d15565b60008484015250505050565b6000601f19601f8301169050919050565b6000610d5882610cf6565b610d628185610d01565b9350610d72818560208601610d12565b610d7b81610d3c565b840191505092915050565b60008115159050919050565b610d9b81610d86565b82525050565b600060e082019050610db6600083018a610ce7565b8181036020830152610dc88189610d4d565b9050610dd76040830188610c54565b610de46060830187610ce7565b610df16080830186610d92565b610dfe60a0830185610c54565b610e0b60c0830184610ce7565b98975050505050505050565b7f6f6e6c79206f776e657220697320616c6c6f7765640000000000000000000000600082015250565b6000610e4d601583610d01565b9150610e5882610e17565b602082019050919050565b60006020820190508181036000830152610e7c81610e40565b9050919050565b7f61756374696f6e2063616e277420626520737461727465640000000000000000600082015250565b6000610eb9601883610d01565b9150610ec482610e83565b602082019050919050565b60006020820190508181036000830152610ee881610eac565b9050919050565b7f6f776e6572206861736e6f7420656e6465642061756374696f6e000000000000600082015250565b6000610f25601a83610d01565b9150610f3082610eef565b602082019050919050565b60006020820190508181036000830152610f5481610f18565b9050919050565b7f796f7520617265206e6f74206865206869676865737420626964646572000000600082015250565b6000610f91601d83610d01565b9150610f9c82610f5b565b602082019050919050565b60006020820190508181036000830152610fc081610f84565b9050919050565b7f626964206973206e6f7420646f6e65206f6e207468652070726f647563740000600082015250565b6000610ffd601e83610d01565b915061100882610fc7565b602082019050919050565b6000602082019050818103600083015261102c81610ff0565b9050919050565b7f7468652061756374696f6e20697320636c6f7365640000000000000000000000600082015250565b6000611069601583610d01565b915061107482611033565b602082019050919050565b600060208201905081810360008301526110988161105c565b9050919050565b7f616d6f756e742063616e74206265207a65726f00000000000000000000000000600082015250565b60006110d5601383610d01565b91506110e08261109f565b602082019050919050565b60006020820190508181036000830152611104816110c8565b9050919050565b7f4e487b7100000000000000000000000000000000000000000000000000000000600052601160045260246000fd5b600061114582610bac565b915061115083610bac565b92508282019050808211156111685761116761110b565b5b92915050565b7f6c657373207468616e207468652062696420616d6f756e740000000000000000600082015250565b60006111a4601883610d01565b91506111af8261116e565b602082019050919050565b600060208201905081810360008301526111d381611197565b9050919050565b60006111e582610bac565b91506111f083610bac565b92508282039050818111156112085761120761110b565b5b92915050565b60006060820190506112236000830186610ce7565b6112306020830185610ce7565b61123d6040830184610ce7565b949350505050565b7f4e487b7100000000000000000000000000000000000000000000000000000000600052602260045260246000fd5b6000600282049050600182168061128c57607f821691505b60208210810361129f5761129e611245565b5b5091905056fea264697066735822122019f8b7788b0937b330b1b3ff354ea9fedf22ddd34ede22e441e9ff266731adbc64736f6c63430008110033",
  "linkReferences": {},
  "deployedLinkReferences": {}
}