{
  "_format": "hh-sol-artifact-1",
  "contractName": "auction",
  "sourceName": "contracts/auction.sol",
  "abi": [
    {
      "inputs": [
        {
          "internalType": "uint256",
          "name": "_basePrice",
          "type": "uint256"
        },
        {
          "internalType": "string",
          "name": "_description",
          "type": "string"
        },
        {
          "internalType": "uint256",
          "name": "_charge",
          "type": "uint256"
        }
      ],
      "stateMutability": "nonpayable",
      "type": "constructor"
    },
    {
      "anonymous": false,
      "inputs": [
        {
          "indexed": true,
          "internalType": "address",
          "name": "buyer",
          "type": "address"
        },
        {
          "indexed": true,
          "internalType": "uint256",
          "name": "FinalPrice",
          "type": "uint256"
        }
      ],
      "name": "auctionEnded",
      "type": "event"
    },
    {
      "anonymous": false,
      "inputs": [
        {
          "indexed": true,
          "internalType": "address",
          "name": "bidders",
          "type": "address"
        },
        {
          "indexed": false,
          "internalType": "uint256",
          "name": "prevBid",
          "type": "uint256"
        },
        {
          "indexed": false,
          "internalType": "uint256",
          "name": "incrementAmount",
          "type": "uint256"
        },
        {
          "indexed": false,
          "internalType": "uint256",
          "name": "recBid",
          "type": "uint256"
        }
      ],
      "name": "bidPlacers",
      "type": "event"
    },
    {
      "anonymous": false,
      "inputs": [
        {
          "indexed": true,
          "internalType": "uint256",
          "name": "basePrice",
          "type": "uint256"
        },
        {
          "indexed": false,
          "internalType": "uint256",
          "name": "charge",
          "type": "uint256"
        },
        {
          "indexed": true,
          "internalType": "address",
          "name": "owner",
          "type": "address"
        }
      ],
      "name": "newAuction",
      "type": "event"
    },
    {
      "inputs": [],
      "name": "claimProduct",
      "outputs": [],
      "stateMutability": "payable",
      "type": "function"
    },
    {
      "inputs": [],
      "name": "endAuction",
      "outputs": [],
      "stateMutability": "nonpayable",
      "type": "function"
    },
    {
      "inputs": [],
      "name": "getAuctionStatus",
      "outputs": [
        {
          "internalType": "bool",
          "name": "",
          "type": "bool"
        }
      ],
      "stateMutability": "nonpayable",
      "type": "function"
    },
    {
      "inputs": [],
      "name": "owner",
      "outputs": [
        {
          "internalType": "address payable",
          "name": "",
          "type": "address"
        }
      ],
      "stateMutability": "view",
      "type": "function"
    },
    {
      "inputs": [],
      "name": "placeBid",
      "outputs": [],
      "stateMutability": "payable",
      "type": "function"
    },
    {
      "inputs": [],
      "name": "reAuction",
      "outputs": [
        {
          "internalType": "bool",
          "name": "",
          "type": "bool"
        }
      ],
      "stateMutability": "view",
      "type": "function"
    },
    {
      "inputs": [],
      "name": "readAuction",
      "outputs": [
        {
          "internalType": "uint256",
          "name": "",
          "type": "uint256"
        },
        {
          "internalType": "string",
          "name": "",
          "type": "string"
        },
        {
          "internalType": "address",
          "name": "",
          "type": "address"
        },
        {
          "internalType": "uint256",
          "name": "",
          "type": "uint256"
        },
        {
          "internalType": "bool",
          "name": "",
          "type": "bool"
        },
        {
          "internalType": "address",
          "name": "",
          "type": "address"
        }
      ],
      "stateMutability": "view",
      "type": "function"
    },
    {
      "inputs": [
        {
          "internalType": "uint256",
          "name": "_charge",
          "type": "uint256"
        },
        {
          "internalType": "uint256",
          "name": "_basePrice",
          "type": "uint256"
        }
      ],
      "name": "startAuction",
      "outputs": [],
      "stateMutability": "nonpayable",
      "type": "function"
    }
  ],
  "bytecode": "0x60806040523480156200001157600080fd5b5060405162001a9938038062001a998339818101604052810190620000379190620002d9565b336000806101000a81548173ffffffffffffffffffffffffffffffffffffffff021916908373ffffffffffffffffffffffffffffffffffffffff16021790555082600360000181905550816003600101908162000095919062000595565b508060036002018190555060006003800160006101000a81548160ff0219169083151502179055506000600360050160006101000a81548173ffffffffffffffffffffffffffffffffffffffff021916908373ffffffffffffffffffffffffffffffffffffffff1602179055505050506200067c565b6000604051905090565b600080fd5b600080fd5b6000819050919050565b62000134816200011f565b81146200014057600080fd5b50565b600081519050620001548162000129565b92915050565b600080fd5b600080fd5b6000601f19601f8301169050919050565b7f4e487b7100000000000000000000000000000000000000000000000000000000600052604160045260246000fd5b620001af8262000164565b810181811067ffffffffffffffff82111715620001d157620001d062000175565b5b80604052505050565b6000620001e66200010b565b9050620001f48282620001a4565b919050565b600067ffffffffffffffff82111562000217576200021662000175565b5b620002228262000164565b9050602081019050919050565b60005b838110156200024f57808201518184015260208101905062000232565b60008484015250505050565b6000620002726200026c84620001f9565b620001da565b9050828152602081018484840111156200029157620002906200015f565b5b6200029e8482856200022f565b509392505050565b600082601f830112620002be57620002bd6200015a565b5b8151620002d08482602086016200025b565b91505092915050565b600080600060608486031215620002f557620002f462000115565b5b6000620003058682870162000143565b935050602084015167ffffffffffffffff8111156200032957620003286200011a565b5b6200033786828701620002a6565b92505060406200034a8682870162000143565b9150509250925092565b600081519050919050565b7f4e487b7100000000000000000000000000000000000000000000000000000000600052602260045260246000fd5b60006002820490506001821680620003a757607f821691505b602082108103620003bd57620003bc6200035f565b5b50919050565b60008190508160005260206000209050919050565b60006020601f8301049050919050565b600082821b905092915050565b600060088302620004277fffffffffffffffffffffffffffffffffffffffffffffffffffffffffffffffff82620003e8565b620004338683620003e8565b95508019841693508086168417925050509392505050565b6000819050919050565b600062000476620004706200046a846200011f565b6200044b565b6200011f565b9050919050565b6000819050919050565b620004928362000455565b620004aa620004a1826200047d565b848454620003f5565b825550505050565b600090565b620004c1620004b2565b620004ce81848462000487565b505050565b5b81811015620004f657620004ea600082620004b7565b600181019050620004d4565b5050565b601f82111562000545576200050f81620003c3565b6200051a84620003d8565b810160208510156200052a578190505b620005426200053985620003d8565b830182620004d3565b50505b505050565b600082821c905092915050565b60006200056a600019846008026200054a565b1980831691505092915050565b600062000585838362000557565b9150826002028217905092915050565b620005a08262000354565b67ffffffffffffffff811115620005bc57620005bb62000175565b5b620005c882546200038e565b620005d5828285620004fa565b600060209050601f8311600181146200060d5760008415620005f8578287015190505b62000604858262000577565b86555062000674565b601f1984166200061d86620003c3565b60005b82811015620006475784890151825560018201915060208501945060208101905062000620565b8683101562000667578489015162000663601f89168262000557565b8355505b6001600288020188555050505b505050505050565b61140d806200068c6000396000f3fe60806040526004361061007b5760003560e01c8063d61f10e81161004e578063d61f10e814610109578063ecfc7ecc14610134578063f4a1dc6f1461013e578063fe67a54b1461016e5761007b565b80632e93be30146100805780634fee13fc146100ab5780638da5cb5b146100d4578063a4882da5146100ff575b600080fd5b34801561008c57600080fd5b50610095610185565b6040516100a29190610c9d565b60405180910390f35b3480156100b757600080fd5b506100d260048036038101906100cd9190610cf3565b61019b565b005b3480156100e057600080fd5b506100e9610303565b6040516100f69190610d74565b60405180910390f35b610107610327565b005b34801561011557600080fd5b5061011e6105d1565b60405161012b9190610c9d565b60405180910390f35b61013c6105e4565b005b34801561014a57600080fd5b50610153610a3f565b60405161016596959493929190610e4f565b60405180910390f35b34801561017a57600080fd5b50610183610b53565b005b60008060149054906101000a900460ff16905090565b3373ffffffffffffffffffffffffffffffffffffffff1660008054906101000a900473ffffffffffffffffffffffffffffffffffffffff1673ffffffffffffffffffffffffffffffffffffffff1614610229576040517f08c379a000000000000000000000000000000000000000000000000000000000815260040161022090610f03565b60405180910390fd5b6003800160009054906101000a900460ff1661027a576040517f08c379a000000000000000000000000000000000000000000000000000000000815260040161027190610f6f565b60405180910390fd5b60011515600060149054906101000a900460ff161515146102d0576040517f08c379a00000000000000000000000000000000000000000000000000000000081526004016102c790610f6f565b60405180910390fd5b600015156003800160009054906101000a9050505060008060146101000a81548160ff0219169083151502179055505050565b60008054906101000a900473ffffffffffffffffffffffffffffffffffffffff1681565b6003800160009054906101000a900460ff16610378576040517f08c379a000000000000000000000000000000000000000000000000000000000815260040161036f90610fdb565b60405180910390fd5b3373ffffffffffffffffffffffffffffffffffffffff16600360050160009054906101000a900473ffffffffffffffffffffffffffffffffffffffff1673ffffffffffffffffffffffffffffffffffffffff161461040b576040517f08c379a000000000000000000000000000000000000000000000000000000000815260040161040290611047565b60405180910390fd5b600060036004015411610453576040517f08c379a000000000000000000000000000000000000000000000000000000000815260040161044a906110b3565b60405180910390fd5b346003600401541461049a576040517f08c379a000000000000000000000000000000000000000000000000000000000815260040161049190611145565b60405180910390fd5b60008054906101000a900473ffffffffffffffffffffffffffffffffffffffff1673ffffffffffffffffffffffffffffffffffffffff166108fc479081150290604051600060405180830381858888f19350505050158015610500573d6000803e3d6000fd5b50600360050160009054906101000a900473ffffffffffffffffffffffffffffffffffffffff166000806101000a81548173ffffffffffffffffffffffffffffffffffffffff021916908373ffffffffffffffffffffffffffffffffffffffff16021790555060036004015460008054906101000a900473ffffffffffffffffffffffffffffffffffffffff1673ffffffffffffffffffffffffffffffffffffffff167f6e0e2174dbf7b77c08b6f9a2799b9feda84a6d54a5644864582040100a47d4c560405160405180910390a3565b600060149054906101000a900460ff1681565b600015156003800160009054906101000a900460ff1615151461063c576040517f08c379a0000000000000000000000000000000000000000000000000000000008152600401610633906111b1565b60405180910390fd5b60003411801561065157506003600001543410155b610690576040517f08c379a00000000000000000000000000000000000000000000000000000000081526004016106879061121d565b60405180910390fd5b600360040154600260003373ffffffffffffffffffffffffffffffffffffffff1673ffffffffffffffffffffffffffffffffffffffff16815260200190815260200160002054346106e1919061126c565b11610721576040517f08c379a0000000000000000000000000000000000000000000000000000000008152600401610718906112ec565b60405180910390fd5b34600160003373ffffffffffffffffffffffffffffffffffffffff1673ffffffffffffffffffffffffffffffffffffffff16815260200190815260200160002081905550600160003373ffffffffffffffffffffffffffffffffffffffff1673ffffffffffffffffffffffffffffffffffffffff16815260200190815260200160002054600260003373ffffffffffffffffffffffffffffffffffffffff1673ffffffffffffffffffffffffffffffffffffffff16815260200190815260200160002060008282546107f3919061126c565b925050819055503373ffffffffffffffffffffffffffffffffffffffff167f0e5ab17807c69aa52563a5badce99097ac8c03419a8e56e6a0b1468bb9541dc5600160003373ffffffffffffffffffffffffffffffffffffffff1673ffffffffffffffffffffffffffffffffffffffff16815260200190815260200160002054600260003373ffffffffffffffffffffffffffffffffffffffff1673ffffffffffffffffffffffffffffffffffffffff168152602001908152602001600020546108bc919061130c565b34600260003373ffffffffffffffffffffffffffffffffffffffff1673ffffffffffffffffffffffffffffffffffffffff1681526020019081526020016000205460405161090c93929190611340565b60405180910390a26000600360020154600160003373ffffffffffffffffffffffffffffffffffffffff1673ffffffffffffffffffffffffffffffffffffffff16815260200190815260200160002054610966919061130c565b905033600360050160006101000a81548173ffffffffffffffffffffffffffffffffffffffff021916908373ffffffffffffffffffffffffffffffffffffffff160217905550600260003373ffffffffffffffffffffffffffffffffffffffff1673ffffffffffffffffffffffffffffffffffffffff168152602001908152602001600020546003600401819055503373ffffffffffffffffffffffffffffffffffffffff166108fc829081150290604051600060405180830381858888f19350505050158015610a3b573d6000803e3d6000fd5b5050565b600060606000806000806003600001546003600101600360050160009054906101000a900473ffffffffffffffffffffffffffffffffffffffff166003600401546003800160009054906101000a900460ff1660008054906101000a900473ffffffffffffffffffffffffffffffffffffffff16848054610abf906113a6565b80601f0160208091040260200160405190810160405280929190818152602001828054610aeb906113a6565b8015610b385780601f10610b0d57610100808354040283529160200191610b38565b820191906000526020600020905b815481529060010190602001808311610b1b57829003601f168201915b50505050509450955095509550955095509550909192939495565b3373ffffffffffffffffffffffffffffffffffffffff1660008054906101000a900473ffffffffffffffffffffffffffffffffffffffff1673ffffffffffffffffffffffffffffffffffffffff1614610be1576040517f08c379a0000000000000000000000000000000000000000000000000000000008152600401610bd890610f03565b60405180910390fd5b60016003800160006101000a81548160ff0219169083151502179055506001600060146101000a81548160ff02191690831515021790555060008054906101000a900473ffffffffffffffffffffffffffffffffffffffff1673ffffffffffffffffffffffffffffffffffffffff166108fc479081150290604051600060405180830381858888f19350505050158015610c7f573d6000803e3d6000fd5b50565b60008115159050919050565b610c9781610c82565b82525050565b6000602082019050610cb26000830184610c8e565b92915050565b600080fd5b6000819050919050565b610cd081610cbd565b8114610cdb57600080fd5b50565b600081359050610ced81610cc7565b92915050565b60008060408385031215610d0a57610d09610cb8565b5b6000610d1885828601610cde565b9250506020610d2985828601610cde565b9150509250929050565b600073ffffffffffffffffffffffffffffffffffffffff82169050919050565b6000610d5e82610d33565b9050919050565b610d6e81610d53565b82525050565b6000602082019050610d896000830184610d65565b92915050565b610d9881610cbd565b82525050565b600081519050919050565b600082825260208201905092915050565b60005b83811015610dd8578082015181840152602081019050610dbd565b60008484015250505050565b6000601f19601f8301169050919050565b6000610e0082610d9e565b610e0a8185610da9565b9350610e1a818560208601610dba565b610e2381610de4565b840191505092915050565b6000610e3982610d33565b9050919050565b610e4981610e2e565b82525050565b600060c082019050610e646000830189610d8f565b8181036020830152610e768188610df5565b9050610e856040830187610e40565b610e926060830186610d8f565b610e9f6080830185610c8e565b610eac60a0830184610e40565b979650505050505050565b7f6f6e6c79206f776e657220697320616c6c6f7765640000000000000000000000600082015250565b6000610eed601583610da9565b9150610ef882610eb7565b602082019050919050565b60006020820190508181036000830152610f1c81610ee0565b9050919050565b7f61756374696f6e2063616e277420626520737461727465640000000000000000600082015250565b6000610f59601883610da9565b9150610f6482610f23565b602082019050919050565b60006020820190508181036000830152610f8881610f4c565b9050919050565b7f6f776e6572206861736e6f7420656e6465642061756374696f6e000000000000600082015250565b6000610fc5601a83610da9565b9150610fd082610f8f565b602082019050919050565b60006020820190508181036000830152610ff481610fb8565b9050919050565b7f796f7520617265206e6f74206865206869676865737420626964646572000000600082015250565b6000611031601d83610da9565b915061103c82610ffb565b602082019050919050565b6000602082019050818103600083015261106081611024565b9050919050565b7f626964206973206e6f7420646f6e65206f6e207468652070726f647563740000600082015250565b600061109d601e83610da9565b91506110a882611067565b602082019050919050565b600060208201905081810360008301526110cc81611090565b9050919050565b7f616d6f756e74206d75737420626520657175616c20746f2062696420616d6f7560008201527f6e74000000000000000000000000000000000000000000000000000000000000602082015250565b600061112f602283610da9565b915061113a826110d3565b604082019050919050565b6000602082019050818103600083015261115e81611122565b9050919050565b7f7468652061756374696f6e20697320636c6f7365640000000000000000000000600082015250565b600061119b601583610da9565b91506111a682611165565b602082019050919050565b600060208201905081810360008301526111ca8161118e565b9050919050565b7f616d6f756e742063616e74206265207a65726f00000000000000000000000000600082015250565b6000611207601383610da9565b9150611212826111d1565b602082019050919050565b60006020820190508181036000830152611236816111fa565b9050919050565b7f4e487b7100000000000000000000000000000000000000000000000000000000600052601160045260246000fd5b600061127782610cbd565b915061128283610cbd565b925082820190508082111561129a5761129961123d565b5b92915050565b7f6c657373207468616e207468652062696420616d6f756e740000000000000000600082015250565b60006112d6601883610da9565b91506112e1826112a0565b602082019050919050565b60006020820190508181036000830152611305816112c9565b9050919050565b600061131782610cbd565b915061132283610cbd565b925082820390508181111561133a5761133961123d565b5b92915050565b60006060820190506113556000830186610d8f565b6113626020830185610d8f565b61136f6040830184610d8f565b949350505050565b7f4e487b7100000000000000000000000000000000000000000000000000000000600052602260045260246000fd5b600060028204905060018216806113be57607f821691505b6020821081036113d1576113d0611377565b5b5091905056fea264697066735822122086987cf79748783d33bae7b2486bff8a983e29aa3aa9393c4cc6e1c869afd80e64736f6c63430008110033",
  "linkReferences": {},
  "deployedLinkReferences": {}
}