{
  "_format": "hh-sol-artifact-1",
  "contractName": "auction",
  "sourceName": "contracts/auction.sol",
  "abi": [
    {
      "inputs": [
        {
          "internalType": "uint256",
          "name": "_basePrice",
          "type": "uint256"
        },
        {
          "internalType": "string",
          "name": "_description",
          "type": "string"
        },
        {
          "internalType": "uint256",
          "name": "_charge",
          "type": "uint256"
        },
        {
          "internalType": "uint256",
          "name": "_auctionTime",
          "type": "uint256"
        }
      ],
      "stateMutability": "nonpayable",
      "type": "constructor"
    },
    {
      "anonymous": false,
      "inputs": [
        {
          "indexed": true,
          "internalType": "address",
          "name": "buyer",
          "type": "address"
        },
        {
          "indexed": true,
          "internalType": "uint256",
          "name": "FinalPrice",
          "type": "uint256"
        }
      ],
      "name": "auctionEnded",
      "type": "event"
    },
    {
      "anonymous": false,
      "inputs": [
        {
          "indexed": true,
          "internalType": "address",
          "name": "bidders",
          "type": "address"
        },
        {
          "indexed": false,
          "internalType": "uint256",
          "name": "amount",
          "type": "uint256"
        }
      ],
      "name": "bidPlacers",
      "type": "event"
    },
    {
      "anonymous": false,
      "inputs": [
        {
          "indexed": true,
          "internalType": "uint256",
          "name": "basePrice",
          "type": "uint256"
        },
        {
          "indexed": false,
          "internalType": "uint256",
          "name": "charge",
          "type": "uint256"
        },
        {
          "indexed": true,
          "internalType": "address",
          "name": "owner",
          "type": "address"
        }
      ],
      "name": "newAuction",
      "type": "event"
    },
    {
      "inputs": [],
      "name": "owner",
      "outputs": [
        {
          "internalType": "address payable",
          "name": "",
          "type": "address"
        }
      ],
      "stateMutability": "view",
      "type": "function"
    },
    {
      "inputs": [],
      "name": "placeBid",
      "outputs": [],
      "stateMutability": "payable",
      "type": "function"
    },
    {
      "inputs": [],
      "name": "readAuction",
      "outputs": [
        {
          "internalType": "uint256",
          "name": "",
          "type": "uint256"
        },
        {
          "internalType": "string",
          "name": "",
          "type": "string"
        },
        {
          "internalType": "address",
          "name": "",
          "type": "address"
        },
        {
          "internalType": "uint256",
          "name": "",
          "type": "uint256"
        },
        {
          "internalType": "bool",
          "name": "",
          "type": "bool"
        },
        {
          "internalType": "address",
          "name": "",
          "type": "address"
        }
      ],
      "stateMutability": "view",
      "type": "function"
    },
    {
      "inputs": [
        {
          "internalType": "uint256",
          "name": "_charge",
          "type": "uint256"
        },
        {
          "internalType": "uint256",
          "name": "_basePrice",
          "type": "uint256"
        }
      ],
      "name": "startAuction",
      "outputs": [],
      "stateMutability": "nonpayable",
      "type": "function"
    }
  ],
  "bytecode": "0x60806040523480156200001157600080fd5b5060405162001410380380620014108339818101604052810190620000379190620002ff565b336000806101000a81548173ffffffffffffffffffffffffffffffffffffffff021916908373ffffffffffffffffffffffffffffffffffffffff1602179055508360018001819055508260016002019081620000949190620005d1565b50816001600301819055506000600160040160006101000a81548160ff021916908315150217905550603c81620000cc9190620006e7565b42620000d9919062000732565b6001600001819055506000600160060160006101000a81548173ffffffffffffffffffffffffffffffffffffffff021916908373ffffffffffffffffffffffffffffffffffffffff160217905550505050506200076d565b6000604051905090565b600080fd5b600080fd5b6000819050919050565b6200015a8162000145565b81146200016657600080fd5b50565b6000815190506200017a816200014f565b92915050565b600080fd5b600080fd5b6000601f19601f8301169050919050565b7f4e487b7100000000000000000000000000000000000000000000000000000000600052604160045260246000fd5b620001d5826200018a565b810181811067ffffffffffffffff82111715620001f757620001f66200019b565b5b80604052505050565b60006200020c62000131565b90506200021a8282620001ca565b919050565b600067ffffffffffffffff8211156200023d576200023c6200019b565b5b62000248826200018a565b9050602081019050919050565b60005b838110156200027557808201518184015260208101905062000258565b60008484015250505050565b60006200029862000292846200021f565b62000200565b905082815260208101848484011115620002b757620002b662000185565b5b620002c484828562000255565b509392505050565b600082601f830112620002e457620002e362000180565b5b8151620002f684826020860162000281565b91505092915050565b600080600080608085870312156200031c576200031b6200013b565b5b60006200032c8782880162000169565b945050602085015167ffffffffffffffff81111562000350576200034f62000140565b5b6200035e87828801620002cc565b9350506040620003718782880162000169565b9250506060620003848782880162000169565b91505092959194509250565b600081519050919050565b7f4e487b7100000000000000000000000000000000000000000000000000000000600052602260045260246000fd5b60006002820490506001821680620003e357607f821691505b602082108103620003f957620003f86200039b565b5b50919050565b60008190508160005260206000209050919050565b60006020601f8301049050919050565b600082821b905092915050565b600060088302620004637fffffffffffffffffffffffffffffffffffffffffffffffffffffffffffffffff8262000424565b6200046f868362000424565b95508019841693508086168417925050509392505050565b6000819050919050565b6000620004b2620004ac620004a68462000145565b62000487565b62000145565b9050919050565b6000819050919050565b620004ce8362000491565b620004e6620004dd82620004b9565b84845462000431565b825550505050565b600090565b620004fd620004ee565b6200050a818484620004c3565b505050565b5b81811015620005325762000526600082620004f3565b60018101905062000510565b5050565b601f82111562000581576200054b81620003ff565b620005568462000414565b8101602085101562000566578190505b6200057e620005758562000414565b8301826200050f565b50505b505050565b600082821c905092915050565b6000620005a66000198460080262000586565b1980831691505092915050565b6000620005c1838362000593565b9150826002028217905092915050565b620005dc8262000390565b67ffffffffffffffff811115620005f857620005f76200019b565b5b620006048254620003ca565b6200061182828562000536565b600060209050601f83116001811462000649576000841562000634578287015190505b620006408582620005b3565b865550620006b0565b601f1984166200065986620003ff565b60005b8281101562000683578489015182556001820191506020850194506020810190506200065c565b86831015620006a357848901516200069f601f89168262000593565b8355505b6001600288020188555050505b505050505050565b7f4e487b7100000000000000000000000000000000000000000000000000000000600052601160045260246000fd5b6000620006f48262000145565b9150620007018362000145565b9250828202620007118162000145565b915082820484148315176200072b576200072a620006b8565b5b5092915050565b60006200073f8262000145565b91506200074c8362000145565b9250828201905080821115620007675762000766620006b8565b5b92915050565b610c93806200077d6000396000f3fe60806040526004361061003f5760003560e01c80634fee13fc146100445780638da5cb5b1461006d578063ecfc7ecc14610098578063f4a1dc6f146100a2575b600080fd5b34801561005057600080fd5b5061006b600480360381019061006691906106f2565b6100d2565b005b34801561007957600080fd5b506100826101cc565b60405161008f9190610773565b60405180910390f35b6100a06101f0565b005b3480156100ae57600080fd5b506100b76103bf565b6040516100c996959493929190610869565b60405180910390f35b3373ffffffffffffffffffffffffffffffffffffffff1660008054906101000a900473ffffffffffffffffffffffffffffffffffffffff1673ffffffffffffffffffffffffffffffffffffffff1614610160576040517f08c379a00000000000000000000000000000000000000000000000000000000081526004016101579061091d565b60405180910390fd5b600160040160009054906101000a900460ff166101b2576040517f08c379a00000000000000000000000000000000000000000000000000000000081526004016101a990610989565b60405180910390fd5b60001515600160040160009054906101000a905050505050565b60008054906101000a900473ffffffffffffffffffffffffffffffffffffffff1681565b60001515600160040160009054906101000a900460ff16151514610249576040517f08c379a0000000000000000000000000000000000000000000000000000000008152600401610240906109f5565b60405180910390fd5b60003411801561025d575060018001543410155b61029c576040517f08c379a000000000000000000000000000000000000000000000000000000000815260040161029390610a61565b60405180910390fd5b3373ffffffffffffffffffffffffffffffffffffffff167fc0e61bbb1ba239f02d2709d3885ddc91852b6e7da2fdfbe7e828f1d35475bc7c346040516102e29190610a81565b60405180910390a26000600160030154346102fd9190610acb565b90506001600501543411156103745733600160060160006101000a81548173ffffffffffffffffffffffffffffffffffffffff021916908373ffffffffffffffffffffffffffffffffffffffff16021790555034600160050181905550600160000154421061036f5761036e6104d3565b5b6103bc565b3373ffffffffffffffffffffffffffffffffffffffff166108fc829081150290604051600060405180830381858888f193505050501580156103ba573d6000803e3d6000fd5b505b50565b6000606060008060008060018001546001600201600160060160009054906101000a900473ffffffffffffffffffffffffffffffffffffffff16600160050154600160040160009054906101000a900460ff1660008054906101000a900473ffffffffffffffffffffffffffffffffffffffff1684805461043f90610b2e565b80601f016020809104026020016040519081016040528092919081815260200182805461046b90610b2e565b80156104b85780601f1061048d576101008083540402835291602001916104b8565b820191906000526020600020905b81548152906001019060200180831161049b57829003601f168201915b50505050509450955095509550955095509550909192939495565b60016000015442101561051b576040517f08c379a000000000000000000000000000000000000000000000000000000000815260040161051290610bd1565b60405180910390fd5b600060016005015411610563576040517f08c379a000000000000000000000000000000000000000000000000000000000815260040161055a90610c3d565b60405180910390fd5b60008054906101000a900473ffffffffffffffffffffffffffffffffffffffff1673ffffffffffffffffffffffffffffffffffffffff166108fc479081150290604051600060405180830381858888f193505050501580156105c9573d6000803e3d6000fd5b5060018060040160006101000a81548160ff021916908315150217905550600160060160009054906101000a900473ffffffffffffffffffffffffffffffffffffffff166000806101000a81548173ffffffffffffffffffffffffffffffffffffffff021916908373ffffffffffffffffffffffffffffffffffffffff16021790555060016005015460008054906101000a900473ffffffffffffffffffffffffffffffffffffffff1673ffffffffffffffffffffffffffffffffffffffff167f6e0e2174dbf7b77c08b6f9a2799b9feda84a6d54a5644864582040100a47d4c560405160405180910390a3565b600080fd5b6000819050919050565b6106cf816106bc565b81146106da57600080fd5b50565b6000813590506106ec816106c6565b92915050565b60008060408385031215610709576107086106b7565b5b6000610717858286016106dd565b9250506020610728858286016106dd565b9150509250929050565b600073ffffffffffffffffffffffffffffffffffffffff82169050919050565b600061075d82610732565b9050919050565b61076d81610752565b82525050565b60006020820190506107886000830184610764565b92915050565b610797816106bc565b82525050565b600081519050919050565b600082825260208201905092915050565b60005b838110156107d75780820151818401526020810190506107bc565b60008484015250505050565b6000601f19601f8301169050919050565b60006107ff8261079d565b61080981856107a8565b93506108198185602086016107b9565b610822816107e3565b840191505092915050565b600061083882610732565b9050919050565b6108488161082d565b82525050565b60008115159050919050565b6108638161084e565b82525050565b600060c08201905061087e600083018961078e565b818103602083015261089081886107f4565b905061089f604083018761083f565b6108ac606083018661078e565b6108b9608083018561085a565b6108c660a083018461083f565b979650505050505050565b7f6f6e6c79206f776e657220697320616c6c6f7765640000000000000000000000600082015250565b60006109076015836107a8565b9150610912826108d1565b602082019050919050565b60006020820190508181036000830152610936816108fa565b9050919050565b7f61756374696f6e2063616e277420626520737461727465640000000000000000600082015250565b60006109736018836107a8565b915061097e8261093d565b602082019050919050565b600060208201905081810360008301526109a281610966565b9050919050565b7f7468652061756374696f6e20697320636c6f7365640000000000000000000000600082015250565b60006109df6015836107a8565b91506109ea826109a9565b602082019050919050565b60006020820190508181036000830152610a0e816109d2565b9050919050565b7f616d6f756e742063616e74206265207a65726f00000000000000000000000000600082015250565b6000610a4b6013836107a8565b9150610a5682610a15565b602082019050919050565b60006020820190508181036000830152610a7a81610a3e565b9050919050565b6000602082019050610a96600083018461078e565b92915050565b7f4e487b7100000000000000000000000000000000000000000000000000000000600052601160045260246000fd5b6000610ad6826106bc565b9150610ae1836106bc565b9250828203905081811115610af957610af8610a9c565b5b92915050565b7f4e487b7100000000000000000000000000000000000000000000000000000000600052602260045260246000fd5b60006002820490506001821680610b4657607f821691505b602082108103610b5957610b58610aff565b5b50919050565b7f7468652062696464696e6720656e6474696d65206973206e6f7420726561636860008201527f6564000000000000000000000000000000000000000000000000000000000000602082015250565b6000610bbb6022836107a8565b9150610bc682610b5f565b604082019050919050565b60006020820190508181036000830152610bea81610bae565b9050919050565b7f626964206973206e6f7420646f6e65206f6e207468652070726f647563740000600082015250565b6000610c27601e836107a8565b9150610c3282610bf1565b602082019050919050565b60006020820190508181036000830152610c5681610c1a565b905091905056fea264697066735822122078d117d4fbbc4a5277e751289ddc9c6be94be138ba4db8f01384a080a0a08d3f64736f6c63430008110033",
  "linkReferences": {},
  "deployedLinkReferences": {}
}